{
    "_format": "hh-sol-artifact-1",
    "contractName": "Transaction",
    "sourceName": "contracts/Transaction.sol",
    "abi": [
        {
            "inputs": [],
            "stateMutability": "nonpayable",
            "type": "constructor"
        },
        {
            "anonymous": false,
            "inputs": [
                {
                    "indexed": false,
                    "internalType": "address",
                    "name": "sender",
                    "type": "address"
                },
                {
                    "indexed": false,
                    "internalType": "address",
                    "name": "receiver",
                    "type": "address"
                },
                {
                    "indexed": false,
                    "internalType": "uint256",
                    "name": "amount",
                    "type": "uint256"
                },
                {
                    "indexed": false,
                    "internalType": "string",
                    "name": "remark",
                    "type": "string"
                }
            ],
            "name": "Transfer",
            "type": "event"
        },
        {
            "inputs": [
                {
                    "internalType": "address payable",
                    "name": "receiver",
                    "type": "address"
                },
                {
                    "internalType": "uint256",
                    "name": "amount",
                    "type": "uint256"
                },
                {
                    "internalType": "string",
                    "name": "remark",
                    "type": "string"
                }
            ],
            "name": "addTransaction",
            "outputs": [],
            "stateMutability": "nonpayable",
            "type": "function"
        },
        {
            "inputs": [],
            "name": "getTransactionCount",
            "outputs": [
                {
                    "internalType": "uint256",
                    "name": "",
                    "type": "uint256"
                }
            ],
            "stateMutability": "view",
            "type": "function"
        },
        {
            "inputs": [],
            "name": "getTransactions",
            "outputs": [
                {
                    "components": [
                        {
                            "internalType": "address",
                            "name": "sender",
                            "type": "address"
                        },
                        {
                            "internalType": "address",
                            "name": "receiver",
                            "type": "address"
                        },
                        {
                            "internalType": "uint256",
                            "name": "amount",
                            "type": "uint256"
                        },
                        {
                            "internalType": "string",
                            "name": "remark",
                            "type": "string"
                        }
                    ],
                    "internalType": "struct Transaction.TransactionStruct[]",
                    "name": "",
                    "type": "tuple[]"
                }
            ],
            "stateMutability": "view",
            "type": "function"
        }
    ],
    "bytecode": "0x608060405234801561001057600080fd5b50610b12806100206000396000f3fe608060405234801561001057600080fd5b50600436106100415760003560e01c8063090c85a4146100465780632e7700f01461006257806383920e9014610080575b600080fd5b610060600480360381019061005b9190610667565b61009e565b005b61006a610226565b60405161007791906106e5565b60405180910390f35b61008861022f565b60405161009591906108dd565b60405180910390f35b6000808154809291906100b09061092e565b9190505550600160405180608001604052803373ffffffffffffffffffffffffffffffffffffffff1681526020018573ffffffffffffffffffffffffffffffffffffffff16815260200184815260200183815250908060018154018082558091505060019003906000526020600020906004020160009091909190915060008201518160000160006101000a81548173ffffffffffffffffffffffffffffffffffffffff021916908373ffffffffffffffffffffffffffffffffffffffff16021790555060208201518160010160006101000a81548173ffffffffffffffffffffffffffffffffffffffff021916908373ffffffffffffffffffffffffffffffffffffffff1602179055506040820151816002015560608201518160030190805190602001906101e19291906103d6565b5050507fcd6e659e4c2e75c3bfe47fecaccf39aeb368116a0ee52afb532e07f6cba6c0d1338484846040516102199493929190610a2f565b60405180910390a1505050565b60008054905090565b60606001805480602002602001604051908101604052809291908181526020016000905b828210156103cd57838290600052602060002090600402016040518060800160405290816000820160009054906101000a900473ffffffffffffffffffffffffffffffffffffffff1673ffffffffffffffffffffffffffffffffffffffff1673ffffffffffffffffffffffffffffffffffffffff1681526020016001820160009054906101000a900473ffffffffffffffffffffffffffffffffffffffff1673ffffffffffffffffffffffffffffffffffffffff1673ffffffffffffffffffffffffffffffffffffffff1681526020016002820154815260200160038201805461033c90610aaa565b80601f016020809104026020016040519081016040528092919081815260200182805461036890610aaa565b80156103b55780601f1061038a576101008083540402835291602001916103b5565b820191906000526020600020905b81548152906001019060200180831161039857829003601f168201915b50505050508152505081526020019060010190610253565b50505050905090565b8280546103e290610aaa565b90600052602060002090601f016020900481019282610404576000855561044b565b82601f1061041d57805160ff191683800117855561044b565b8280016001018555821561044b579182015b8281111561044a57825182559160200191906001019061042f565b5b509050610458919061045c565b5090565b5b8082111561047557600081600090555060010161045d565b5090565b6000604051905090565b600080fd5b600080fd5b600073ffffffffffffffffffffffffffffffffffffffff82169050919050565b60006104b88261048d565b9050919050565b6104c8816104ad565b81146104d357600080fd5b50565b6000813590506104e5816104bf565b92915050565b6000819050919050565b6104fe816104eb565b811461050957600080fd5b50565b60008135905061051b816104f5565b92915050565b600080fd5b600080fd5b6000601f19601f8301169050919050565b7f4e487b7100000000000000000000000000000000000000000000000000000000600052604160045260246000fd5b6105748261052b565b810181811067ffffffffffffffff821117156105935761059261053c565b5b80604052505050565b60006105a6610479565b90506105b2828261056b565b919050565b600067ffffffffffffffff8211156105d2576105d161053c565b5b6105db8261052b565b9050602081019050919050565b82818337600083830152505050565b600061060a610605846105b7565b61059c565b90508281526020810184848401111561062657610625610526565b5b6106318482856105e8565b509392505050565b600082601f83011261064e5761064d610521565b5b813561065e8482602086016105f7565b91505092915050565b6000806000606084860312156106805761067f610483565b5b600061068e868287016104d6565b935050602061069f8682870161050c565b925050604084013567ffffffffffffffff8111156106c0576106bf610488565b5b6106cc86828701610639565b9150509250925092565b6106df816104eb565b82525050565b60006020820190506106fa60008301846106d6565b92915050565b600081519050919050565b600082825260208201905092915050565b6000819050602082019050919050565b60006107378261048d565b9050919050565b6107478161072c565b82525050565b610756816104eb565b82525050565b600081519050919050565b600082825260208201905092915050565b60005b8381101561079657808201518184015260208101905061077b565b838111156107a5576000848401525b50505050565b60006107b68261075c565b6107c08185610767565b93506107d0818560208601610778565b6107d98161052b565b840191505092915050565b60006080830160008301516107fc600086018261073e565b50602083015161080f602086018261073e565b506040830151610822604086018261074d565b506060830151848203606086015261083a82826107ab565b9150508091505092915050565b600061085383836107e4565b905092915050565b6000602082019050919050565b600061087382610700565b61087d818561070b565b93508360208202850161088f8561071c565b8060005b858110156108cb57848403895281516108ac8582610847565b94506108b78361085b565b925060208a01995050600181019050610893565b50829750879550505050505092915050565b600060208201905081810360008301526108f78184610868565b905092915050565b7f4e487b7100000000000000000000000000000000000000000000000000000000600052601160045260246000fd5b6000610939826104eb565b91507fffffffffffffffffffffffffffffffffffffffffffffffffffffffffffffffff82141561096c5761096b6108ff565b5b600182019050919050565b6109808161072c565b82525050565b6000819050919050565b60006109ab6109a66109a18461048d565b610986565b61048d565b9050919050565b60006109bd82610990565b9050919050565b60006109cf826109b2565b9050919050565b6109df816109c4565b82525050565b600082825260208201905092915050565b6000610a018261075c565b610a0b81856109e5565b9350610a1b818560208601610778565b610a248161052b565b840191505092915050565b6000608082019050610a446000830187610977565b610a5160208301866109d6565b610a5e60408301856106d6565b8181036060830152610a7081846109f6565b905095945050505050565b7f4e487b7100000000000000000000000000000000000000000000000000000000600052602260045260246000fd5b60006002820490506001821680610ac257607f821691505b60208210811415610ad657610ad5610a7b565b5b5091905056fea264697066735822122046737ea3c1eef5e11d4cc910f53b288764eb03e4813f6743d08e98d1b911bcca64736f6c63430008090033",
    "linkReferences": {},
    "deployedLinkReferences": {}
}